:020000040800F2
:10000000D00600202902000831020008330200084F
:10001000350200083702000839020008000000001D
:100020000000000000000000000000003B0200088B
:100030003D020008000000003F020008A50900087A
:10004000430200084302000843020008430200087C
:10005000430200084302000843020008430200086C
:10006000430200084302000843020008430200085C
:10007000430200084302000843020008430200084C
:10008000430200084302000843020008430200083C
:10009000430200084302000843020008430200082C
:1000A000430200084302000843020008430200081C
:1000B000D10A0008E90A00084302000843020008C8
:1000C00043020008430200084302000843020008FC
:1000D00043020008430200084302000843020008EC
:1000E00043020008430200084302000843020008DC
:1000F00043020008430200084302000843020008CC
:1001000043020008430200084302000843020008BB
:1001100043020008430200084302000843020008AB
:10012000430200084302000843020008430200089B
:10013000430200084302000843020008430200088B
:10014000430200084302000843020008430200087B
:10015000430200084302000843020008430200086B
:10016000430200084302000843020008430200085B
:100170004302000843020008430200080000000098
:10018000430200084302000800F002F800F03CF8C7
:100190000AA090E8000C82448344AAF10107DA45E2
:1001A00001D100F031F8AFF2090EBAE80F0013F0F8
:1001B000010F18BFFB1A43F001031847340F00006A
:1001C000540F0000103A24BF78C878C1FAD85207FB
:1001D00024BF30C830C144BF04680C6070470000C1
:1001E0000023002400250026103A28BF78C1FBD840
:1001F000520728BF30C148BF0B6070471FB500F0E1
:1002000065FF1FBD10B510BD00F031F81146FFF7B6
:10021000F5FF00F07FFE00F04FF803B4FFF7F2FFA8
:1002200003BC00F057F80000094880470948004720
:10023000FEE7FEE7FEE7FEE7FEE7FEE7FEE7FEE796
:10024000FEE7FEE704480549054A064B70470000F3
:100250006D0A000889010008D0000020D0060020A7
:10026000D0020020D00200207047704770477546CA
:1002700000F02CF8AE4605006946534620F0070012
:10028000854618B020B5FFF7DDFFBDE820404FF0F0
:1002900000064FF000074FF000084FF0000B21F070
:1002A0000701AC46ACE8C009ACE8C009ACE8C0093D
:1002B000ACE8C0098D46704710B50446AFF3008026
:1002C0002046BDE81040FFF7A8BF00000048704777
:1002D0006C00002001491820ABBEFEE7260002009A
:1002E000704738B500F0A8F9012000F069FA00F075
:1002F000ABFA0446012C24D1072002234FF4A87244
:1003000008210090C80400F081FA012000F078FA7A
:1003100000BF392000F028FA0028FAD0052000F0AC
:1003200023F8002000F040FA4FF4A05000F050FAFB
:100330004FF4805000F058FA022000F079FA0120C2
:1003400038BD0020FCE7000010B500F025F80122C0
:100350001102044800F0B0F84FF47A7000F094FDF8
:1003600010BD000000000240014A107070470000FC
:10037000003C02401CB54FF48070009000208DF8C6
:10038000040003208DF805006946024800F01CF8BF
:100390001CBD0000000002401CB50121084600F011
:1003A0002BF94FF48070009001208DF8040000209C
:1003B0008DF8060003208DF805006946014800F01D
:1003C00003F81CBD00000240F0B50A4600210023DE
:1003D000002400BF3DE0012505FA01F3156805EA98
:1003E00003049C4234D105684F000326BE40B54348
:1003F000056015794E00B5400668354305601579EE
:10040000012D02D01579022D16D185684F000326E3
:10041000BE40B543856055794E00B540866835438A
:100420008560456801268E40B543456045689679EC
:100430008E40B6B235434560C5684F000326BE40C6
:10044000B543C560D5794E00B540C6683543C56033
:10045000491C1029BFD3F0BDF0B5002300244D077F
:10046000ED0E02FA05F3CE1000F1200555F82650E6
:100470004E07F70E0F26BE40B543CF1000F1200601
:1004800046F82750CE1000F1200555F8265045EAD1
:100490000304CE1000F1200545F82640F0BD0246C9
:1004A000002013690B400BB1012000E000207047D1
:1004B00042694A40426170470AB1018300E04183CA
:1004C00070471FB50121084600F0A6F842F2CF00A0
:1004D000ADF8040040F2E73002900020ADF80C00C7
:1004E000ADF8060001A94FF0804000F03BFB01226F
:1004F0001146900700F02CFB0121880700F00BFB50
:100500001C208DF8000000208DF801008DF80200FD
:1005100001208DF80300684600F032F81FBD00008E
:100520001FB50121022000F077F842F2CF00ADF8AC
:10053000040042F20F7002900020ADF80C00ADF8FC
:10054000060001A90D4800F00DFB012211460B48E1
:1005500000F0FEFA0121094800F0DDFA1D208DF8B7
:10056000000000208DF8010001208DF802008DF8B8
:100570000300684600F004F81FBD000000040040BE
:1005800070B5002100230F22C4781CB3174C2468D7
:1005900004F4E064C4F5E064C4F30721C1F1040489
:1005A000E3B20A4144789C40E1B28478144021438C
:1005B0000C07210E0E4C05786155047804F01F05D8
:1005C0000124AC4005786D11AD0005F1E025C5F8BA
:1005D000004109E0047804F01F050124AC40054DFA
:1005E0000678761145F8264070BD00000CED00E05D
:1005F00000E400E080E100E029B1064A126802430D
:10060000044B1A6004E0034A12688243014B1A60EB
:10061000704700003038024029B1064A1268024390
:10062000044B1A6004E0034A12688243014B1A60CB
:1006300070470000403802400E48006840F001005A
:100640000C49086000200B4908310860094800681F
:1006500009490840074908600848091D0860081F43
:10066000006820F48020091F0860002001490C3137
:100670000860704700380240FFFFF6FE103000248B
:10068000F0B5002100220024022500260223324F6B
:100690003F6807F00C0121B1042905D0082937D1A2
:1006A00005E02E4F076036E02D4F076033E02A4FFC
:1006B0003F1F3F68C7F38056274F3F1F3F6807F033
:1006C0003F036EB1264FB7FBF3F7DFF88CC0ACF1F8
:1006D000040CDCF800C0CCF3881C07FB0CF40CE025
:1006E0001E4FB7FBF3F7DFF870C0ACF1040CDCF879
:1006F00000C0CCF3881C07FB0CF4174F3F1F3F686A
:10070000C7F301477F1C7D00B4FBF5F7076002E0EB
:10071000124F076000BF00BF0F4F3F6807F0F001A6
:100720000909104F7A5C0768D74047600A4F3F6855
:1007300007F4E051890A0B4F7A5C4768D74087601D
:10074000054F3F6807F46041490B064F7A5C4768E4
:10075000D740C760F0BD0000083802400024F40014
:1007600000127A002100002010B50146002200236B
:1007700000204A11012A02D10A4C236808E0022A0B
:1007800003D1084C7034236802E0064C74342368AB
:1007900001F01F02012494401C400CB1012000E034
:1007A000002010BD0038024001460020034A1068B6
:1007B00020F0F00008431060704700000838024045
:1007C0000021024A11701146087070470238024039
:1007D00001460020034A106820F4E05008431060EE
:1007E000704700000838024001460020034A1068A4
:1007F00020F4604040EAC1001060704708380240B1
:1008000001490866704700000000474270B5049C2B
:1008100041EA82150126C6EB530645EA0645054323
:1008200045EA0465014E356070BD000004380240A1
:1008300001460020034A106820F0030008431060BE
:10084000704700000838024038B5002000900024AE
:10085000002500BF3120FFF787FF05460098401CA8
:1008600000900098B0F5A06F01D0002DF2D031209B
:10087000FFF77AFF08B1012400E00024204638BDCC
:1008800070B50025002427E000BF4FF480711448A4
:10089000FFF705FE0028F8D04B2000F001FB4FF4D5
:1008A00080710F48FFF7FBFD01280ED100BF4FF408
:1008B00080710B48FFF7F3FD0128F8D0C4F1070160
:1008C00001208840C0B2054304E0C4F107010120C3
:1008D00088408543601CC4B2082CD5DB284670BD17
:1008E0000000024010B50446FFF756FD00224FF409
:1008F00080712948FFF7E0FD142000F0C5FA0122BD
:1009000011022548FFF7D8FD502000F0C9FAFFF783
:1009100031FD4FF480712048FFF7C1FD002839D127
:1009200000BF4FF480711C48FFF7B9FD0028F8D0D4
:1009300000BF4FF480711848FFF7B1FD0128F8D0CF
:10094000FFF79EFFA070FFF79BFFE070FFF798FF97
:100950002070FFF795FF6070FFF792FF20712078FD
:100960000E490870A0780E490870FFF715FD0122A6
:1009700011020948FFF7A0FDA078E178084421782A
:100980000844617808442179884201D1012010BDD2
:100990000020FCE70020FAE7000002400E000020E3
:1009A0000F00002010B500F01FF910BD70B5002039
:1009B0000022022300240221274D2D6805F00C009F
:1009C00020B1042806D0082834D107E0234D244E56
:1009D000356033E0234D224E35602FE01E4D2D1F34
:1009E0002D68C5F380541C4D2D1F2D6805F03F0167
:1009F00054B11C4DB5FBF1F5174E361F3668C6F3E2
:100A0000881605FB06F209E0144DB5FBF1F5124E10
:100A1000361F3668C6F3881605FB06F20E4D2D1FED
:100A20002D68C5F301456D1C6B00B2FBF3F50C4E50
:100A3000356003E0094D0A4E356000BF00BF064D2A
:100A40002D68C5F30315084E705D054D2D68C54032
:100A5000034E356070BD0000083802400024F400E9
:100A60003400002000127A00D610000814480068F4
:100A700040F47000124908601248006840F001001C
:100A80001049086000200F49083108600D480068CF
:100A90000D4908400B4908600C48091D0860081FF3
:100AA000006820F48020091F0860002005490C31EF
:100AB00008604FF00060024980390860704700000C
:100AC00088ED00E000380240FFFFF6FE1030002401
:100AD00010B50121880700F02AF818B10121880714
:100AE00000F016F810BD000010B50121064800F016
:100AF0001EF840B105480078401C044908700121E7
:100B0000014800F005F810BD000400400D00002071
:100B1000CA430282704721B1028842F0010202807A
:100B200004E002884FF6FE731A400280704730B529
:100B30000246002000230024158A05EA0103958956
:100B400005EA010413B10CB1012000E0002030BD22
:100B50001AB183890B43838102E083898B438381AC
:100B60007047000000220288184B98420ED0184BA4
:100B700098420BD0B0F1804F08D0164B984205D068
:100B8000154B984202D0154B984204D14FF68F7303
:100B90001A404B881A43124B984207D0114B984287
:100BA00004D04FF6FF431A400B891A4302804B686A
:100BB000C3620B880385054B984202D0044B9842D0
:100BC00001D18B7A038601238382704700000140A4
:100BD000000401400004004000080040000C0040F8
:100BE00000100040001400400448006820B1034891
:100BF0000068401E014908607047000000000020A6
:100C000000B587B001210846FFF7F6FC0121480432
:100C1000FFF702FD072202211948FFF71DFC0722FA
:100C200003211748FFF718FC0C20059002208DF8CF
:100C300018008DF8190000208DF81A0001208DF899
:100C40001B0005A90E48FFF7BFFB4FF4E1300190F0
:100C50000020ADF810000C20ADF80E000020ADF81B
:100C60000C00ADF80A00ADF8080001A9054800F035
:100C700085F80121034800F067F807B000BD0000C7
:100C8000000002400044004010B5044600BF80212F
:100C9000044800F065F80028F9D02146014800F02A
:100CA000D7F810BD0044004010B5044603E014F826
:100CB000010BFFF7E9FF20780028F8D110BD0000F4
:100CC00000B587B001210220FFF796FC01218804BE
:100CD000FFF7A2FC07220A211948FFF7BDFB0722F4
:100CE0000B211748FFF7B8FB4FF440600590022036
:100CF0008DF818008DF8190000208DF81A000120D9
:100D00008DF81B0005A90E48FFF75EFB4FF4165047
:100D100001900020ADF810000C20ADF80E0000206E
:100D2000ADF80C00ADF80A00ADF8080001A90548BF
:100D300000F024F80121034800F006F807B000BDD8
:100D4000000402400048004021B1828942F4005270
:100D5000828104E082894DF6FF731A4082817047D8
:100D600002460020B1F5007F00D100BF13880B4080
:100D70000BB1012000E00020704700002DE9FF4783
:100D800005460E460024A14600BFA046B08900B12A
:100D900000BF2C8A24F44054F08804432C82AC8990
:100DA00041F20C608443B08831890843718908435B
:100DB0000443AC81AC8A24F44074B0890443AC820F
:100DC0006846FFF75DFC2048854202D01F488542F7
:100DD00002D1DDF80C9001E0DDF80890A88900F45C
:100DE000004040B109EBC90000EB0910316849002F
:100DF000B0FBF1F707E009EBC90000EB091031681F
:100E00008900B0FBF1F76420B7FBF0F00401200982
:100E1000642101FB1078A88900F4004040B1322021
:100E200000EBC800B0FBF1F000F00700044308E05D
:100E3000322000EB08106421B0FBF1F000F00F004D
:100E400004432C81BDE8FF870010014000140140DD
:100E5000C1F308028280704710B50246084800239B
:100E6000037000BFB2FBF1F301FB1323054CE45CFC
:100E7000431E18461C70B2FBF1F2002AF2D110BDDD
:100E8000690000201000002001B5044900980860A6
:100E900000BF024800680028FBD108BD0000002008
:100EA00001B50098C0EBC00000EB4000009000BF0F
:100EB0000098411E00910028FAD108BD10B501210B
:100EC0000820FFF799FB01210846FFF795FB4FF437
:100ED00078400D49086001200871002088710320C6
:100EE00048710020C8710948FFF76EFAF0200649E2
:100EF0000860002008718871032048710020C871C3
:100F00000348FFF761FA10BD04000020000C024006
:100F1000000002401CB5FFF7E4F9FFF747FD2C483D
:100F200000684FF47A72B0FBF2F1481EB0F1807F96
:100F300001D301201BE0481E4FF0E0225061501702
:100F40000F22002804DB13071C0E224B1C5406E062
:100F500013071D0E204B00F00F04241F1D5500BF6A
:100F600000204FF0E022906107201061002008B1BE
:100F700000BFFEE7FFF7A5FAFFF7D2FAFFF79EFFE3
:100F8000FFF73EFEFFF79CFEFFF7DEF913A000F02F
:100F90003FF81BE016480078052817DD00201449AB
:100FA00008704FF480511348FFF782FA6846FFF744
:100FB00099FC012807D1104802781048017810A048
:100FC00000F026F802E010A000F022F8E2E70000AE
:100FD0003400002000E400E018ED00E00D0A20637A
:100FE0006865636B2044544831310D0A00000000ED
:100FF0000D000020000C02400F0000200E00002019
:1010000025642C25640000006572726F7200000078
:101010000FB4F8B507A80090069C50E003E02078D4
:10102000FFF732FE641C2078252802D020780028A3
:10103000F5D1641C20786F2822D004DC632807D007
:1010400064283AD10BE0732825D0782835D129E0DF
:10105000009820C80090E8B2FFF716FE2DE0009837
:1010600020C80090002D03DA6D422D20FFF70CFE02
:101070000A212846FFF7F0FE0746FFF715FE1CE0A1
:10108000009820C8009008212846FFF7E5FE074693
:10109000FFF70AFE11E0009840C800903046FFF7C5
:1010A00003FE0AE0009820C8009010212846FFF7B0
:1010B000D3FE0746FFF7F8FD00BF00BF641C207891
:1010C0000028ABD10090F8BC5DF814FB4FF04070E5
:1010D000E1EE100A7047000000000000000001026D
:1010E00003040607080900000000010203040000D1
:1010F000101100080000002038000000C4010008A2
:10110000481100083800002098060000E00100089F
:1011100000000000000000000000000000000000CF
:10112000303132333435363738394142434445461D
:101130000000000000010203040102030406070886
:08114000090000000024F40086
:0400000508000229C4
:00000001FF
